{
  "contractName": "AdvertContract",
  "abi": [
    {
      "inputs": [],
      "stateMutability": "nonpayable",
      "type": "constructor"
    },
    {
      "stateMutability": "payable",
      "type": "receive",
      "payable": true
    },
    {
      "inputs": [],
      "name": "receiveEther",
      "outputs": [
        {
          "internalType": "uint256",
          "name": "",
          "type": "uint256"
        }
      ],
      "stateMutability": "payable",
      "type": "function",
      "payable": true
    },
    {
      "inputs": [],
      "name": "getBalance",
      "outputs": [
        {
          "internalType": "uint256",
          "name": "",
          "type": "uint256"
        }
      ],
      "stateMutability": "view",
      "type": "function",
      "constant": true
    },
    {
      "inputs": [
        {
          "internalType": "address payable",
          "name": "_to",
          "type": "address"
        }
      ],
      "name": "withdrawEtherTo",
      "outputs": [],
      "stateMutability": "nonpayable",
      "type": "function"
    }
  ],
  "bytecode": "0x608060405234801561001057600080fd5b5033600160006101000a81548173ffffffffffffffffffffffffffffffffffffffff021916908373ffffffffffffffffffffffffffffffffffffffff1602179055506040518060400160405280600c81526020017f48656c6c6f20576f726c642100000000000000000000000000000000000000008152506000908051906020019061009d9291906100a3565b506101a7565b8280546100af90610146565b90600052602060002090601f0160209004810192826100d15760008555610118565b82601f106100ea57805160ff1916838001178555610118565b82800160010185558215610118579182015b828111156101175782518255916020019190600101906100fc565b5b5090506101259190610129565b5090565b5b8082111561014257600081600090555060010161012a565b5090565b6000600282049050600182168061015e57607f821691505b6020821081141561017257610171610178565b5b50919050565b7f4e487b7100000000000000000000000000000000000000000000000000000000600052602260045260246000fd5b6102d3806101b66000396000f3fe6080604052600436106100385760003560e01c806307fa40e41461004457806312065fe01461006d578063a3912ec8146100985761003f565b3661003f57005b600080fd5b34801561005057600080fd5b5061006b600480360381019061006691906101b7565b6100b6565b005b34801561007957600080fd5b5061008261017d565b60405161008f9190610218565b60405180910390f35b6100a0610185565b6040516100ad9190610218565b60405180910390f35b8073ffffffffffffffffffffffffffffffffffffffff166108fc3073ffffffffffffffffffffffffffffffffffffffff166312065fe06040518163ffffffff1660e01b815260040160206040518083038186803b15801561011657600080fd5b505afa15801561012a573d6000803e3d6000fd5b505050506040513d601f19601f8201168201806040525081019061014e91906101e0565b9081150290604051600060405180830381858888f19350505050158015610179573d6000803e3d6000fd5b5050565b600047905090565b600034905090565b60008135905061019c8161026f565b92915050565b6000815190506101b181610286565b92915050565b6000602082840312156101c957600080fd5b60006101d78482850161018d565b91505092915050565b6000602082840312156101f257600080fd5b6000610200848285016101a2565b91505092915050565b61021281610265565b82525050565b600060208201905061022d6000830184610209565b92915050565b600061023e82610245565b9050919050565b600073ffffffffffffffffffffffffffffffffffffffff82169050919050565b6000819050919050565b61027881610233565b811461028357600080fd5b50565b61028f81610265565b811461029a57600080fd5b5056fea2646970667358221220c78bf82c3d6936f6078fbfa4e154291e391f8cc9f40355544673e513cb9d41b364736f6c63430008030033",
  "immutableReferences": {},
  "source": "// SPDX-License-Identifier: MIT\npragma solidity ^0.8.3;\n\ncontract AdvertContract {\n  string message;\n  address owner;\n  constructor() {\n  owner = msg.sender;\n  message = \"Hello World!\";\n  }\n\n  receive() external payable {}\n\n  function receiveEther() payable public returns(uint){\n    return msg.value;\n  }\n\n  function return1() private returns(uint){\n    \n  }\n  function return2() private returns(uint){\n\n  }\n\n  function getBalance() public view returns(uint){\n    return address(this).balance;\n  }\n\n  function withdrawEtherTo(address payable _to) public {\n    _to.transfer(this.getBalance());\n}\n}",
  "sourcePath": "/home/daniel/Schreibtisch/BachelorThesis/SmartContract/contracts/AdvertContract.sol",
  "compiler": {
    "name": "solc",
    "version": "0.8.3+commit.8d00100c.Emscripten.clang"
  },
  "schemaVersion": "3.3.2",
  "updatedAt": "2021-05-02T19:15:44.717Z",
  "networkType": "ethereum",
  "devdoc": {
    "kind": "dev",
    "methods": {},
    "version": 1
  },
  "userdoc": {
    "kind": "user",
    "methods": {},
    "version": 1
  }
}